:020000040800F2
:10000000000F002029020008F1200008051D00084B
:10001000ED2000081F0400081D2B00080000000050
:100020000000000000000000000000003322000873
:1000300035040008000000003122000835220008C5
:10004000430200084302000843020008430200087C
:10005000430200084302000843020008430200086C
:10006000430200084302000843020008430200085C
:10007000430200084302000843020008430200084C
:10008000430200084302000843020008430200083C
:100090002504000843020008430200084302000848
:1000A000430200084302000843020008430200081C
:1000B000430200084302000843020008430200080C
:1000C00043020008430200084302000843020008FC
:1000D00043020008430200084302000843020008EC
:1000E00043020008430200084302000843020008DC
:1000F00043020008430200084302000843020008CC
:1001000043020008430200084302000843020008BB
:1001100043020008430200084302000843020008AB
:10012000430200084302000843020008430200089B
:10013000430200084302000843020008430200088B
:10014000430200084302000843020008430200087B
:10015000430200084302000843020008430200086B
:10016000430200084302000843020008430200085B
:100170004302000843020008430200080000000098
:10018000430200084302000800F002F800F03CF8C7
:100190000AA090E8000C82448344AAF10107DA45E2
:1001A00001D100F031F8AFF2090EBAE80F0013F0F8
:1001B000010F18BFFB1A43F001031847782A00000B
:1001C000982A0000103A24BF78C878C1FAD852079C
:1001D00024BF30C830C144BF04680C6070470000C1
:1001E0000023002400250026103A28BF78C1FBD840
:1001F000520728BF30C148BF0B6070471FB502F0DF
:1002000007FD1FBD10B510BD00F0CFF81146FFF778
:10021000F5FF02F0CDFC00F0EDF803B4FFF7F2FFBC
:1002200003BC00F0F5F80000094880470948004782
:10023000FEE7FEE7FEE7FEE7FEE7FEE7FEE7FEE796
:10024000FEE7FEE704480549054A064B70470000F3
:10025000F12200088901000800090020000F002099
:10026000000B0020000B002053EA020C00F0698014
:100270002DE9F04B4FF00006002B1FBFB3FA83F5BA
:1002800003FA05F424FA05F65E4012BF1643B2FAEB
:1002900082F502FA05F4C5F120051EBF22FA05FC1D
:1002A00044EA0C04203556EA044C4FEA144418BFC3
:1002B000641C4FF000084FF00009904271EB030CF2
:1002C00039D3002919BFB1FA81F701FA07F6B0FA5C
:1002D00080F700FA07F6C7F120071EBF20FA07FCD7
:1002E00046EA0C062037B6FBF4FCA7EB0507103FE7
:1002F00007F01F0BCBF120060CFA0BFB2CFA06F6CD
:1003000044BFB3460026202FA4BF5E464FF0000B2B
:100310005BEA060C08BF4FF0010B19EB0B09ABFBB6
:10032000027C48EB0608C01B06FB02CC0BFB03CC8F
:1003300071EB0C01C1E70B46024641464846BDE859
:10034000F08B13B54FF000004FF00001AFF30080C9
:10035000BDE81C4070474FF0000200B513469446BC
:100360009646203922BFA0E80C50A0E80C50B1F10D
:100370002001BFF4F7AF090728BFA0E80C5048BF21
:100380000CC05DF804EB890028BF40F8042B08BFBF
:10039000704748BF20F8022B11F0804F18BF00F8BB
:1003A000012B7047704770477047754600F02CF876
:1003B000AE4605006946534620F00700854618B052
:1003C00020B5FFF73FFFBDE820404FF000064FF09B
:1003D00000074FF000084FF0000B21F00701AC467A
:1003E000ACE8C009ACE8C009ACE8C009ACE8C00999
:1003F0008D46704710B50446AFF300802046BDE837
:100400001040FFF70ABF000000487047A008002016
:1004100001491820ABBEFEE726000200704700BF6E
:10042000FEE7000010B5024800F06EF910BD0000B4
:10043000AC000020704772B600BFFEE710B5024660
:1004400092F82030012B01D0022B06D110684069B0
:10045000084314686061002010BD506A40F4802099
:1004600050620120F8E70000F0B504460A46216812
:1004700094F82050012D01D0022D7ED1424901F582
:100480000071086840F001000860086820F47C50A2
:1004900008600868566A40EA06200860107D00F08F
:1004A0001F06012000FA06F3C8699843C861A1F548
:1004B0000071D069C8B9D1F80C029843C1F80C0298
:1004C000908880B2968940EA064601F51070576917
:1004D00040F83760108880B2168940EA064601F578
:1004E0001070576900EBC7004660D069012819D128
:1004F000D1F80C021843C1F80C02908880B216881B
:1005000040EA064601F51070576940F83760908957
:1005100080B2168940EA064601F51070576900EB73
:10052000C7004660906928B9D1F804029843C1F821
:10053000040204E0D1F804021843C1F8040210696F
:1005400028B9D1F814029843C1F8140204E0D1F894
:1005500014021843C1F81402106A012804D1D1F81A
:100560001C021843C1F81C02D1F8000220F001005F
:10057000C1F800020020F0BDFFE7606A40F480206F
:1005800060620120F7E7000000640040704770B52A
:10059000044694F82050012D01D0022D7DD151B98F
:1005A0002068C06800F0030080B9606A40F4001061
:1005B0006062012070BD2068006900F0030028B966
:1005C000606A40F4001060620120F3E7206800F5E3
:1005D000D87000EB0110006800F004009060906893
:1005E00040B9206800F5D87000EB01100068400D9C
:1005F000106007E0206800F5D87000EB011000687B
:10060000C0085060206800F5D87000EB0110006849
:1006100000F00200D060206800F5D87000EB0110F7
:10062000406800F00F001061206800F5D87000EB02
:100630000110406800F47F40000A9061206800F5D6
:10064000D87000EB01104068000C5061206800F584
:10065000D87000EB011080681870206800F5D87021
:1006600000EB0110806800F47F40000A5870206899
:1006700000F5D87000EB0110806800F47F00000CDA
:100680009870206800F5D87000EB01108068000EAB
:10069000D870206800F5D87000E02FE000EB011062
:1006A000C0681871206800F5D87000EB0110C068B0
:1006B00000F47F40000A5871206800F5D87000EB04
:1006C0000110C06800F47F00000C9871206800F5EC
:1006D000D87000EB0110C068000ED87131B92068E5
:1006E000C06840F020002668F06005E020680069DE
:1006F00040F020002668306100205BE7606A40F42B
:1007000080206062012055E72DE9F05F0446002556
:10071000206846692068D0F80490206887682068BF
:10072000D0F80CA02068D0F810B02068D0F818805D
:1007300006F00100002855D007F00100C0B10120EB
:100740002168886007F0020018B1204600F079FAAD
:100750000EE007F0040010B145F4006508E007F072
:10076000080010B145F4805502E0204600F068FA18
:1007700007F48070C8B14FF480702168886007F476
:10078000007018B1204600F05EFA0EE007F48060B9
:1007900010B145F4005508E007F4006010B145F4CD
:1007A000804502E0204600F04DFA07F48030C8B1E1
:1007B0004FF480302168886007F4003018B120467B
:1007C00000F043FA0EE007F4802010B145F4004534
:1007D00008E007F4002010B145F4803502E020461F
:1007E00000F032FA06F0080038B10AF0100020B12B
:1007F00045F4007510202168C86006F0040040B17F
:100800000AF0080028B108202168C860204600F0DE
:10081000A9F906F0020038B12068C06800F00300B2
:1008200010B1204600F0A0F906F0400038B10BF0FE
:10083000100020B145F4806510202168086106F0A1
:10084000200040B10BF0080028B1082021680861A1
:10085000204600F0C3F906F0100038B120680069A6
:1008600000F0030010B1204600F0B9F906F40030A2
:1008700040B109F0100028B11020216848602046DE
:1008800000F0AEF906F4803040B109F0080028B15C
:10089000082021684860204600F0D8F906F400409E
:1008A00088B309F0040078B306F4807020B108F032
:1008B000010008B145F0010506F4007020B108F010
:1008C000020008B145F0020506F4806020B108F08E
:1008D000040008B145F0040506F40060A0B108F07A
:1008E000700088B108F07000402817D006DC10288E
:1008F0000BD020280CD0302819D10CE0502810D073
:10090000602814D110E01DE019E045F008050FE063
:1009100045F010050CE045F0200509E045F04005E4
:1009200006E045F0800503E045F4807500E000BF77
:1009300000BF2068806920F0700021688861042071
:10094000216848602DB1606A284360622046FFF745
:100950001DFEBDE8F09F70B504460CB9012070BDC6
:1009600094F8200010B9204600F0B0F82068006824
:1009700040F001002168086000F07EFA05460DE0B5
:1009800000F07AFA401B0A2808D9606A40F4003067
:100990006062052084F820000120E0E720684068BC
:1009A00000F001000028EBD02068006820F0020071
:1009B0002168086000F060FA05460DE000F05CFA7E
:1009C000401B0A2808D9606A40F4003060620520A4
:1009D00084F820000120C2E72068406800F002008F
:1009E0000028EBD1207E012806D12068006840F065
:1009F00080002168086005E02068006820F0800021
:100A000021680860607E012806D12068006840F0F7
:100A100040002168086005E02068006820F0400080
:100A200021680860A07E012806D12068006840F097
:100A300020002168086005E02068006820F02000A0
:100A400021680860E07E012806D12068006820F057
:100A500010002168086005E02068006840F0100080
:100A600021680860207F012806D12068006840F0D6
:100A700008002168086005E02068006820F0080090
:100A800021680860607F012806D12068006840F076
:100A900004002168086005E02068006820F0040078
:100AA00021680860D4E902010843216908436169AB
:100AB00008436168491E08432168C86100206062DC
:100AC000012084F82000002049E7000010B586B01E
:100AD0000446142101A8FFF73EFC1F492068884204
:100AE00037D100BF002000901C48006840F0007023
:100AF0001A4908600846006800F00070009000BFC6
:100B000000BF00BF0020009014481038006840F07B
:100B100008001249103908600846006800F0080013
:100B2000009000BF00BF032001900220029000202F
:100B30000390032004900920059001A9084800F0C3
:100B40009BF800221146142000F020FA142000F037
:100B50000DFA06B010BD00000064004040380240AD
:100B6000000C02407047000010B504461749206889
:100B7000884229D1164B174A00212046FFF707FD6E
:100B800014480068A0F20520E8B9114840781049DF
:100B9000097840EA0120104988800D48C0780C4946
:100BA000897840EA012000B20B49C88008484079A2
:100BB0000749097940EA012000B207490881044841
:100BC0008079887200BF00BF10BD00000064004043
:100BD000A200002084080020780800207047704799
:100BE000704770B5044694F82000012822D10220F5
:100BF00084F820002068006820F001002168086067
:100C000000F03AF905460DE000F036F9401B0A28DD
:100C100008D9606A40F400306062052084F8200042
:100C2000012070BD2068406800F001000028EBD171
:100C30006062F6E7606A40F4002060620120F0E73D
:100C400070477047704770477047704770470000A3
:100C500070B5044600F010F906462546681C10B130
:100C600004480078054400BF00F006F9801BA84244
:100C7000FAD370BD0C000020F8B502460B460025E3
:100C8000002400200021D6E0012606FA01F51E68A6
:100C900006EA0504AC4274D11E7906F00306012E63
:100CA00004D01E7906F00306022E13D190684F007F
:100CB0000326BE40B0434F00DE68BE403043906024
:100CC000506801268E40B0431E79C6F300168E4050
:100CD000304350601E7906F00306032E09D0D06819
:100CE0004F000326BE40B0434F009E68BE403043D5
:100CF000D0601E7906F00306022E13D1CF0802F150
:100D0000200656F827004E07F70E0F26BE40B043C8
:100D10004F07FF0E1E69BE403043CF0802F1200688
:100D200046F8270010684F000326BE40B0431E79E6
:100D300006F003064F00BE40304310605E6806F4C4
:100D40004036002E76D000BF002600963C4E366816
:100D500046F480463A4F3E603E46366806F480468A
:100D6000009600BF00BF374E8F0856F827008E0749
:100D7000370F0F26BE40B043334EB24202D1002699
:100D800024E057E0314EB24201D101261EE0304E40
:100D9000B24201D1022619E02E4EB24201D1032601
:100DA00014E02D4EB24201D104260FE02B4EB24288
:100DB00001D105260AE02A4EB24201D1062605E0FD
:100DC000284EB24201D1072600E008268F073F0FC8
:100DD000BE4030431B4E8F0846F82700224E306835
:100DE000A0435E6806F4801606B120431E4E3060B4
:100DF000361D3068A0435E6806F4001606B1204335
:100E0000194E361D3060184E361F3068A0435E689C
:100E100006F4003606B12043134E361F3060361FED
:100E20003068A0435E6806F4803606B120430E4E5B
:100E3000083E3060491C1029FFF426AFF8BD0000C1
:100E400044380240083801400000024000040240DB
:100E500000080240000C0240001002400014024052
:100E600000180240001C0240083C01400AB18161A8
:100E700001E00B048361704701480068704700007F
:100E80000400002003480068034909780844014928
:100E900008607047040000200C00002010B50D48C9
:100EA000006840F400700B4908600846006840F490
:100EB000806008600846006840F480700860032085
:100EC00000F0A2F80F2000F007F800F02BF8002047
:100ED00010BD0000003C024070B504460E4800788A
:100EE0004FF47A71B1FBF0F00C490968B1FBF0F5F1
:100EF000284600F005FC08B1012070BD102C07D277
:100F000000222146501E00F041F80548046001E02F
:100F10000120F2E70020F0E70C0000200000002094
:100F20000800002008B500BF002000900E480068AF
:100F300040F480400C4908600846006800F4804096
:100F4000009000BF00BF00BF00200090081F006895
:100F500040F08050091F08600846006800F080508B
:100F6000009000BF00BF08BD44380240014608465B
:100F7000002809DB00F01F0301229A4043099B006F
:100F800003F1E023C3F8002100BF70472DE9F05FB3
:100F900080460D461646002701F0C2FD0746394639
:100FA0002A46334601F00700C0F1070ABAF1040FE0
:100FB00002D94FF0040A01E0C0F1070AD14600F15E
:100FC000040ABAF1070F02D24FF0000A01E0A0F1C3
:100FD000030AD4464FF0010A0AFA09FAAAF1010AF3
:100FE0000AEA020A0AFA0CFA4FF0010B0BFA0CFBA0
:100FF000ABF1010B0BEA030B4AEA0B042146404616
:1010000001F096FDBDE8F09F00BF00F00702064B1F
:1010100019684FF6FF031940044B0B4343EA0221C2
:10102000014B196000BF70470CED00E00000FA05AD
:1010300070B504460D460CB9012070BD58480068D3
:1010400000F00700A84209D255490D700846006813
:1010500000F00700A84201D00120EEE7207800F060
:10106000020002281DD1207800F00400042805D1D8
:101070004C48006840F4E0504A490860207800F08D
:101080000800082805D14748006840F460404549F9
:1010900008604448006820F0F000A1680843414916
:1010A0000860207800F00100A8B36068012807D12B
:1010B0003C4808380068C0F34040B8B90120BCE79C
:1010C0006068022802D06068032807D135480838D4
:1010D0000068C0F3406048B90120AEE731480838E5
:1010E0000068C0F3400008B90120A6E72D48006859
:1010F00020F00300616808432A490860FFF7BCFE3E
:10110000064609E0FFF7B8FE801B41F288318842AD
:1011100002D9032091E707E02248006800F00C00A4
:101120006168B0EB810FEDD11D48006800F0070049
:10113000A84209D91A490D700846006800F0070056
:10114000A84201D0012078E7207800F004000428AC
:1011500007D11448006820F4E050E16808431149C1
:101160000860207800F00800082808D10D480068C1
:1011700020F46040216940EAC1000A49086000F09B
:1011800019F808490968C1F30311074A515CC840BE
:101190000649086006480068FFF79EFE00204CE7FD
:1011A000003C0240083802401A2C000800000020D1
:1011B000080000202DE9F047002400250026A14664
:1011C0002548006800F00C0020B1042805D008284C
:1011D0003AD105E0DFF8849039E0DFF8849036E01A
:1011E0001D48001F006800F03F041B48001F0068F6
:1011F00000F4800078B11A481749091F0968C1F343
:101200008811A0FB01700146224600233846FFF7F3
:101210002BF805460EE011480F49091F0968C1F374
:101220008811A0FB01700146224600233846FFF7D3
:101230001BF805460848001F0068C0F30140401C29
:101240004600B5FBF6F902E0DFF8109000BF00BFE2
:101250004846BDE8F0870000083802400024F4004A
:10126000001BB700F8B504460CB90120F8BD207882
:1012700000F00100002874D0F948006800F00C006C
:1012800004280DD0F648006800F00C00082813D19F
:10129000F348001F006800F48000B0F5800F0BD108
:1012A000EF4808380068C0F34040002859D0606813
:1012B000002856D10120D9E700BF6068B0F5803F13
:1012C00008D1E7480838006840F48030E44908391C
:1012D00008601EE06068B0F5A02F0DD1E048083826
:1012E000006840F48020DE4908390860084600683C
:1012F00040F4803008600CE0D9480838006820F4D9
:101300008030D749083908600846006820F48020FA
:10131000086000BF606890B1FFF7AEFD054606E0CB
:10132000FFF7AAFD401B642801D903209EE7CC48A3
:1013300008380068C0F340400028F1D011E0FFF702
:101340009BFD054606E0FFF797FD401B642801D989
:1013500003208BE7C24808380068C0F340400028EB
:10136000F1D1207800F0020002285FD1BC4800686B
:1013700000F00C0058B1BA48006800F00C000828D2
:101380001CD1B748001F006800F48000B0B9B44811
:1013900008380068C0F3400020B1E068012801D09F
:1013A000012063E7AE480838006820F0F8002169A2
:1013B00040EAC100AA490839086037E0E06800B394
:1013C0000120A8490860FFF757FD054606E0FFF732
:1013D00053FD401B022801D9032047E7A0480838E5
:1013E0000068C0F340000028F1D09D48083800682C
:1013F00020F0F800216940EAC100994908390860E5
:1014000014E0002097490860FFF736FD054606E026
:10141000FFF732FD401B022801D9032026E7904840
:1014200008380068C0F340000028F1D1207800F0AF
:10143000080008282CD16069A8B101208A490860F9
:10144000FFF71AFD054606E0FFF716FD401B0228D0
:1014500001D903200AE782486C300068C0F34000DD
:101460000028F1D014E000207F490860FFF704FD58
:10147000054606E0FFF700FD401B022801D90320C6
:10148000F4E677486C300068C0F340000028F1D1E2
:10149000207800F00400042870D10027704838300C
:1014A000006800F0805090B900BF002000906C48A8
:1014B0003830006840F0805069493831086008468B
:1014C000006800F08050009000BF00BF012767480F
:1014D000006800F48070B0B96448006840F480701F
:1014E00062490860FFF7C8FC054606E0FFF7C4FC48
:1014F000401B022801D90320B8E65C48006800F4CC
:1015000080700028F2D000BFA068012808D154489C
:101510006830006840F001005149683108601DE002
:10152000A06805280DD14E486830006840F00400DE
:101530004B49683108600846006840F001000860C7
:101540000CE047486830006820F0010044496831E9
:1015500008600846006820F00400086000BFA0682A
:10156000A8B1FFF789FC054609E0FFF785FC401BA1
:1015700041F28831884202D9032077E626E03848D4
:1015800068300068C0F340000028EED013E0FFF799
:1015900073FC054608E0FFF76FFC401B41F2883101
:1015A000884201D9032061E62D4868300068C0F305
:1015B00040000028EFD1012F07D1294838300068BA
:1015C00020F0805026493831086000BFA06900280B
:1015D00045D02348006800F00C0008285DD0A069C1
:1015E000022845D100201F490866FFF745FC054643
:1015F00006E0FFF741FC401B022801D9032035E635
:10160000174808380068C0F340600028F1D1D4E9D9
:1016100007010843616A40EA81110122A06AC2EB16
:10162000500041EA00412C20005D41EA00600C4975
:10163000091F086001200B490866FFF71DFC0546DD
:1016400006E0FFF719FC401B022801D903200DE634
:10165000034808380068C0F340600028F1D049E032
:101660000838024000004742800E474200700040A8
:10167000002021490866FFF7FFFB054606E0FFF75B
:10168000FBFB401B022801D90320EFE51B48006843
:10169000C0F340600028F2D12CE0A069012800D1FD
:1016A000E4E51648001D0668A069012820D006F46C
:1016B0008001E06981421BD106F03F01206A81422E
:1016C00016D147F6C0703040616AB0EB811F0FD170
:1016D00006F440310122A06AC2EB5000B1EB004F8A
:1016E00006D106F070612C20005DB1EB006F01D0D7
:1016F0000120BBE50020B9E5000047420038024068
:1017000070B504462546681EB0F1807F01D30120E4
:101710000FE0681E4FF0E02148610F214FF0FF30CD
:1017200001F006FA00204FF0E021886107200861EF
:10173000002070BD10B50346002200BF93F83C00A6
:10174000012801D1022010BD012083F83C0000BF18
:1017500022F0FF00CC6840EA040222F440708C685A
:1017600040EA040222F480604C6840EA040222F459
:1017700000600C6840EA040222F480500C6940EAE0
:10178000040222F400504C6940EA040222F4804032
:10179000CC6940EA04021868426400BF002083F864
:1017A0003C0000BF00BFCEE730B502460B4600BF8D
:1017B00092F83C00012801D1022030BD012082F8BE
:1017C0003C0000BF022082F83D00106844681068A9
:1017D000816824F070041868044310684460184D50
:1017E0001068A8421BD01068B0F1804F17D0154D7B
:1017F0001068A84213D0144D1068A8420FD0134DA2
:101800001068A8420BD0124D1068A84207D0114DA5
:101810001068A84203D0104D1068A84205D121F0ED
:1018200080015868014310688160012082F83D0002
:1018300000BF002082F83C0000BF00BFBDE70000F1
:10184000000001400004004000080040000C00407F
:1018500000040140004001400018004010B504465B
:101860000CB9012010BD94F83D0028B9002084F87F
:101870003C00204600F026F8022084F83D00211D9F
:10188000206800F03FFD012084F8460000BF84F886
:101890003E0001213F2001554020015541200155C6
:1018A00000BF00BF012084F84200432001554420BE
:1018B00001554520015500BF012084F83D0000205E
:1018C000D0E7000008B51F4A016891420FD100BF60
:1018D000002100911C49096841F001011A4A116078
:1018E0001146096801F00101009100BF29E0174A83
:1018F0000168914211D100BF002100911249091FD6
:10190000096841F00401104A121F1160114609686C
:1019100001F00401009100BF13E00D4A01689142FB
:101920000FD100BF002100910749096841F0020171
:10193000054A11601146096801F00201009100BFDB
:1019400000BF08BD000001404438024000080040CC
:10195000000401402DE9F04104460D46002700BF78
:1019600094F83C00012802D10220BDE8F08101205A
:1019700084F83C0000BF022084F83D00206886689F
:1019800026F0770626F47F4620688660286850286F
:1019900033D00CDC202850D004DC00284BD0102899
:1019A00051D149E0302849D040284CD139E0602855
:1019B0002DD0702807D0B0F5805F03D0B0F5005F60
:1019C00041D10DE041E0D5E902136A68206800F0DA
:1019D00005FD2068866846F077062068866034E05A
:1019E000D5E902136A68206800F0F8FC2068806876
:1019F00040F480402168886027E0EA6869682068D0
:101A000000F0DCFD5021206800F0F3FC1DE0EA68E6
:101A10006968206800F0E5FD6021206800F0E9FCBD
:101A200013E0EA686968206800F0C8FD402120687A
:101A300000F0DFFC09E000BF00BF00BF296820689C
:101A400000F0D7FC01E0012700BF00BF012084F8AF
:101A50003D0000BF002084F83C0000BF384684E70A
:101A600010B586B00446142101A8FEF774FC424963
:101A7000206888421ED100BF002000903F480068C7
:101A800040F010003D4908600846006800F0100072
:101A9000009000BF00BF4FF4D4400190022002909C
:101AA0000020039004900120059001A93448FFF71D
:101AB000E3F85FE03349206888421ED100BF002070
:101AC00000902E48006840F008002C490860084645
:101AD000006800F00800009000BF00BF4FF4804095
:101AE00001900220029000200390049002200590B3
:101AF00001A92548FFF7C0F83CE024492068884246
:101B000038D100BF002000901C48006840F480706D
:101B10001A4908600846006800F48070009000BF11
:101B200000BF00BF002000900846006840F004009D
:101B300008600846006800F00400009000BF00BF85
:101B4000C020019002200290002003900490032006
:101B5000059001A90E48FFF78FF840200190022060
:101B600002900020039004900320059001A90948E9
:101B7000FFF782F806B010BD000001403038024087
:101B80000010024000080040000C02400004014028
:101B900000200240000802402DE9F04104460D46B5
:101BA0001646002700BF94F83C00012802D102200D
:101BB000BDE8F081012084F83C0000BF36B1042E5E
:101BC0001BD0082E31D00C2E5ED145E0294620686E
:101BD00000F018FC2068806940F0080021688861E6
:101BE0002068806920F0040021688861206880698D
:101BF000296908432168886148E02946206800F087
:101C000039FC2068806940F40060216888612068A0
:101C1000806920F480602168886120688069296972
:101C200040EA01202168886130E02946206800F000
:101C30005FFC2068C06940F008002168C861206826
:101C4000C06920F004002168C8612068C069296962
:101C500008432168C86119E02946206800F084FC27
:101C60002068C06940F400602168C8612068C069CC
:101C700020F480602168C8612068C069296940EA51
:101C800001202168C86101E0012700BF00BF00BF3B
:101C9000002084F83C0000BF384689E710B50446B0
:101CA0000CB9012010BD94F83D0028B9002084F83B
:101CB0003C00204600F025F8022084F83D00211D5C
:101CC000206800F01FFB012084F8460000BF84F864
:101CD0003E0001213F200155402001554120015582
:101CE00000BF00BF012084F842004320015544207A
:101CF00001554520015500BF012084F83D0000201A
:101D0000D0E7704700BFFEE710B50E480E490860E7
:101D10000320486000210C488160C1604FF410210D
:101D200001614FF400114161002101764176817615
:101D3000C17601774177FEF70EFE08B1FEF77BFB17
:101D400010BD000000640040AC00002000B587B06A
:101D5000142102A8FEF7FFFA00BF002001903648C8
:101D6000006840F00100344908600846006800F04F
:101D70000100019000BF00BF00BF00200190084695
:101D8000006840F0080008600846006800F008009D
:101D9000019000BF00BF00BF00200190084600680E
:101DA00040F4807008600846006800F4807001907C
:101DB00000BF00BF00BF002001900846006840F04F
:101DC000800008600846006800F08000019000BFB5
:101DD00000BF00BF002001900846006840F00400EA
:101DE00008600846006800F00400019000BF00BFD2
:101DF00000BF002001900846006840F01000086015
:101E00000846006800F01000019000BF00BF0022EB
:101E10004FF4E0510948FFF729F84FF4E0500290E1
:101E200001200390022004900020059002A903489D
:101E3000FEF722FF07B000BD30380240001C024010
:101E400000B595B0002011901290139014900F904F
:101E500010901C2108A8FEF77EFA20216846FEF7A4
:101E60007AFA384838490860A72048600021364887
:101E7000816044F61F61C16000210161416181619F
:101E8000FFF7ECFC08B1FEF7D6FA4FF48050119042
:101E900011A92D48FFF75EFD08B1FEF7CCFA2A48DC
:101EA000FFF7FCFE08B1FEF7C6FA00200F90109075
:101EB0000FA92548FFF778FC08B1FEF7BCFA6020AF
:101EC00008904FF4FA60099000200A900B900C9053
:101ED0000D900E90002208A91B48FFF75DFE08B187
:101EE000FEF7A9FA042208A91748FFF755FE08B122
:101EF000FEF7A1FA082208A91348FFF74DFE08B122
:101F0000FEF799FA0C2208A90F48FFF745FE08B121
:101F1000FEF791FA00200090019002900390049047
:101F20004FF4005005900020079069460648FFF7DF
:101F300001FC08B1FEF77FFA0348FFF791FD15B0E9
:101F400000BD000000000140D400002000B58DB0AD
:101F5000002009900A900B900C90079008901C218B
:101F60006846FEF7F8F920482049086000204860DC
:101F700000211E48816045F20721C16000210161F6
:101F80008161FFF76BFC08B1FEF755FA4FF4805002
:101F9000099009A91548FFF7DDFC08B1FEF74BFAD7
:101FA0001248FFF77BFE08B1FEF745FA00200790C4
:101FB000089007A90D48FFF7F7FB08B1FEF73BFAB9
:101FC0006020009000200190029004900822694651
:101FD0000648FFF7E1FD08B1FEF72DFA0348FFF7C9
:101FE0003FFD0DB000BD0000000800401C010020B6
:101FF00000B595B0002011901290139014900F909E
:1020000010901C2108A8FEF7A6F920216846FEF7CB
:10201000A2F9344834490860A720486000213248BA
:10202000816044F61F61C1600021016141618161ED
:10203000FFF714FC08B1FEF7FEF94FF48050119041
:1020400011A92948FFF786FC08B1FEF7F4F92648E4
:10205000FFF724FE08B1FEF7EEF900200F90109074
:102060000FA92148FFF7A0FB08B1FEF7E4F96020B3
:1020700008904FF4FA60099000200A900B900C90A1
:102080000D900E90002208A91748FFF785FD08B1B2
:10209000FEF7D1F9042208A91348FFF77DFD08B126
:1020A000FEF7C9F9082208A90F48FFF775FD08B126
:1020B000FEF7C1F900200090019002900390049077
:1020C0004FF4005005900020079069460648FFF73E
:1020D00031FB08B1FEF7AFF90348FFF7C1FC15B0BB
:1020E00000BD0000000401406401002000BFFEE7C5
:1020F00000BFFEE7B0EE401A90ED010A80ED020A43
:1021000031EE600A80ED010A017801F00101E9B1C8
:1021100090ED010AD0ED031AB4EEE10AF1EE10FAE7
:1021200003DB90ED030A80ED010A90ED010AD0ED8A
:10213000031AF1EE611AB4EEE10AF1EE10FA05D8D5
:1021400090ED030AB1EE400A80ED010A0178C1F377
:10215000800151B190ED050AD0ED081A90ED012AE9
:1021600001EE820A80ED050A07E090ED050AD0ED48
:10217000011A30EE210A80ED050A0178C1F3400111
:10218000E9B190ED050AD0ED061AB4EEE10AF1EEE0
:1021900010FA03DB90ED060A80ED050A90ED050AC2
:1021A000D0ED061AF1EE611AB4EEE10AF1EE10FA82
:1021B00005D890ED060AB1EE400A80ED050A90EDD3
:1021C0000A0A80ED0B0A90ED050AD0ED071A90ED92
:1021D000012A01EE820AD0ED011A90ED022A71EE79
:1021E000C21A90ED092A02EE210A80ED0A0A90ED4A
:1021F0000A0AD0ED0C1AB4EEE10AF1EE10FA03DB94
:1022000090ED0C0A80ED0A0A90ED0A0AD0ED0C1A46
:10221000F1EE611AB4EEE10AF1EE10FA05D890ED94
:102220000C0AB1EE400A80ED0A0A90ED0A0A7047E6
:102230007047704710B5FEF725FE10BD00B593B08E
:10224000302107A8FEF787F8142102A8FEF783F8CB
:1022500000BF002001902448006840F080502249CF
:1022600008600846006800F08050019000BF00BF81
:1022700000BF002001901D48006840F480401B49C9
:1022800008600846006800F48040019000BF00BF6D
:10229000012007900004089002200D9041050E9146
:1022A00006210F91A8211091022111910421129170
:1022B00007A8FEF7D7FF08B1FEF7BDF80F20029080
:1022C00002200390002004904FF4A05005904FF49A
:1022D00080500690052102A8FEF7AAFE08B1FEF77D
:1022E000AAF813B000BD0000403802400070004062
:1022F0000348006840F4700001490860704700001E
:1023000088ED00E010B50268294B98420ED0B0F17C
:10231000804F0BD0274B984208D0274B984205D0CE
:10232000264B984202D0264B984203D122F07002ED
:102330004B681A431E4B984220D0B0F1804F1DD0FD
:102340001C4B98421AD01C4B984217D01B4B9842FA
:1023500014D01B4B984211D01A4B98420ED01A4BF6
:1023600098420BD0194B984208D0194B984205D08F
:10237000184B984202D0184B984203D122F4407275
:10238000CB681A4322F080034C6943EA04020260DE
:102390008B68C3620B688362054B984202D0084B7E
:1023A000984201D10B6903630123436110BD000012
:1023B000000001400004004000080040000C004004
:1023C0000004014000400140004401400048014039
:1023D00000180040001C00400020004030B50C46B2
:1023E000816821F47F4142EA032525432943816026
:1023F00030BD0A46816821F0700142F0070319439D
:102400008160704730B5056A25F001050562026AF2
:102410004368846924F0700424F003040D682C439D
:1024200022F002028D682A43104DA84200D103E039
:102430000F4DA84206D100BF22F00802CD682A4302
:1024400022F00402094DA84202D0094DA84207D14A
:1024500023F4807323F400734D692B438D692B4360
:10246000436084614D684563026230BD00000140F5
:102470000004014030B5056A25F010050562026AC6
:102480004368846924F4E04424F440740D6844EA09
:10249000052422F020028D6842EA0512124DA8425E
:1024A00000D103E0114DA84207D100BF22F0800205
:1024B000CD6842EA051222F040020B4DA84202D03C
:1024C0000A4DA84209D123F4806323F400634D69C7
:1024D00043EA85038D6943EA8503436084614D685F
:1024E0008563026230BD000000000140000401402D
:1024F00030B5056A25F480750562026A4368C469CF
:1025000024F0700424F003040D682C4322F40072BC
:102510008D6842EA0522124DA84200D103E0114D18
:10252000A84207D100BF22F40062CD6842EA05222A
:1025300022F480620A4DA84202D00A4DA84209D175
:1025400023F4805323F400534D6943EA05138D6946
:1025500043EA05134360C4614D68C563026230BD40
:10256000000001400004014030B5056A25F48055A3
:102570000562036A4468C26922F4E04222F44072B0
:102580000D6842EA052223F400538D6843EA0533BF
:10259000084DA84202D0084DA84204D124F480443A
:1025A0004D6944EA85144460C2614D680564036264
:1025B00030BD0000000001400004014030B50B4672
:1025C0001446026A056A25F001050562816921F059
:1025D000F00141EA041122F00A021A438161026209
:1025E00030BD30B50B461446056A25F0100505626E
:1025F0008169026A21F4704141EA043122F0A002AB
:1026000042EA03128161026230BD000000205FE0F7
:102610009FEDFE0A00EB4001C1EB4011FC4A02EBCA
:10262000810181ED070A9FEDFB0A00EB4001C1EB40
:10263000401102EB810181ED080A9FEDF70A00EBE2
:102640004001C1EB401102EB810181ED090A00EB71
:102650004001C1EB401112F8211021F00201891C48
:1026600000EB4002C2EB4012E94B03F8221000EBF2
:102670004001C1EB40111A4612F8211021F004016B
:10268000091D00EB4002C2EB401203F822109FED3F
:10269000E30A00EB4001C1EB40111A4602EB810155
:1026A00081ED060A9FEDDE0A00EB4001C1EB40110F
:1026B00002EB810181ED040A9FEDDA0A00EB400193
:1026C000C1EB401102EB810181ED0C0A411CC8B243
:1026D00004289DDBD449097821F00201891CD24AE3
:1026E00011701146097821F00401091D11709FED48
:1026F000CD0A114681ED060A9FEDCC0A81ED040A50
:10270000CB4991ED000A114681ED070AC94991EDC7
:10271000000A114681ED080AC74991ED000A1146E9
:1027200081ED090A9FEDBF0A81ED0C0AC3490978C2
:1027300021F00201891CC14A11701146097821F06B
:102740000401091D11709FEDB70A114681ED060ABB
:102750009FEDB60A81ED040AB94991ED000A1146D0
:1027600081ED070AB74991ED000A114681ED080A8B
:10277000B54991ED000A114681ED090A9FEDA90ABC
:1027800081ED0C0AB149097821F00201891CAF4A98
:1027900011701146097821F00401091D11709FED97
:1027A000A10A114681ED060A9FEDA00A81ED040AF7
:1027B000A74991ED000A114681ED070AA54991ED5F
:1027C000000A114681ED080AA34991ED000A11465D
:1027D00081ED090A9FED930A81ED0C0A9F49097862
:1027E00021F00201891C9D4A11701146097821F0DF
:1027F0000401091D11709FED8B0A114681ED060A37
:102800009FED8A0A81ED040A954991ED000A11466F
:1028100081ED070A934991ED000A114681ED080AFE
:10282000914991ED000A114681ED090A9FED7D0A5B
:1028300081ED0C0A8D49097821F00201891C8B4A2F
:1028400011701146097821F00401091D11709FEDE6
:10285000750A114681ED060A9FED740A81ED040A9E
:10286000834991ED000A114681ED070A814991EDF6
:10287000000A114681ED080A7F4991ED000A1146D0
:1028800081ED090A9FED670A81ED0C0A7B49097801
:1028900021F00201891C794A11701146097821F052
:1028A0000401091D11709FED5F0A114681ED060AB2
:1028B000B2EE040A81ED040A714991ED000A114655
:1028C00081ED070A6F4991ED000A114681ED080A72
:1028D0006D4991ED000A114681ED090A9FED510AFB
:1028E00081ED0C0A6949097821F00201891C674AC7
:1028F00011701146097821F00401091D11709FED36
:10290000490A114681ED060A9FED480A81ED040A45
:102910005F4991ED000A114681ED070A5D4991ED8D
:10292000000A114681ED080A5B4991ED000A114643
:1029300081ED090A9FED3B0A81ED0C0A57490978A0
:1029400021F00201891C554A11701146097821F0C5
:102950000401091D11709FED300A114681ED060A30
:10296000B2EE040A494981ED040A4D4991ED000A8D
:10297000114681ED070A4B4991ED000A114681EDA0
:10298000080A494991ED000A114681ED090A9FEDB7
:10299000250A81ED0C0A4549097821F00201891CBC
:1029A000424A11709FED420A114681ED060AB2EECD
:1029B000040A81ED070A9FED180A81ED080A9FEDD0
:1029C000160A81ED090A9FED3B0A81ED0C0A3A498E
:1029D000097821F00201891C374A11709FED370AEE
:1029E000114681ED060AB1EE0C0A81ED070A9FED52
:1029F0000A0A81ED080AB3EE060A81ED090A9FED85
:102A0000300A81ED0C0A2F4909785DE033337340B9
:102A10007C030020CDCCCC3D000000000080BB44F6
:102A20000000FA430060EA46AC0100200000C84202
:102A300010000020140000201800002020020020B8
:102A40001C00002020000020240000209402002010
:102A5000280000202C000020300000200803002067
:102A600034000020380000203C0000203406002004
:102A7000580000205C00002060000020A806002014
:102A800064000020680000206C0000204C0500203D
:102A9000400000204400002048000020C005002025
:102AA0004C00002050000020540000201C07002093
:102AB00000007A440000FA45900700200000FA4424
:102AC0000080BB450408002021F00201891C0F4A48
:102AD00011701146097821F00401091D11709FED54
:102AE0000C0A114681ED070A9FED0A0A81ED080ADA
:102AF0001FED370A81ED090A9FED070A81ED060AED
:102B00009FED050A81ED0C0A7047000004080020C3
:102B100017B7513917B7D1386666E63E00BFFEE7F2
:102B200002480068C0F30220704700000CED00E08E
:102B300010B5002804DB0A07130E054A135406E0FB
:102B40000A07140E034A00F00F031B1FD45410BDD4
:102B500000E400E018ED00E000B58BB00120099022
:102B6000002007900120089000200190029003901F
:102B700004900690059001A90C48FDF775FC0B48E0
:102B8000FEF72FF802210948FDF758FC0E200A90A5
:102B9000069001A90548FDF767FC0448FEF721F8F7
:102BA00002210248FDF74AFC0BB000BDAC0000203A
:102BB000FEF774F9FFF742FBFFF7C8F8FFF7A4F838
:102BC000FFF73EF9FFF7C2F9FFF712FAFFF71EFD14
:102BD000FFF7C2FF15E00122D1020A48FEF746F9CD
:102BE0000948B0F9060000EE100AB8EEC00AF0EE8F
:102BF000400AB2EE040A0548FFF77CFA0A20FEF705
:102C000027F8E8E7001C0240780800201C07002095
:102C10004FF04070E1EE100A704700000000000025
:102C20000000010203040607080900000000010279
:102C300003040000542C000800000020AC00000039
:102C4000C4010008002D0008AC000020540E000054
:102C5000E00100080024F400000000001000000063
:102C60000100000000002042000000000000000001
:102C7000000000410AD7233C0000B4420000F041AC
:102C800000000000000000000000404000000000C4
:102C900000000000000007430000000000000000EA
:102CA0000000004200000000000000000000AF43F0
:102CB000000000000000000000008841000000004B
:102CC000000020410000803F2F4D92BFBB5AD33EF1
:102CD000FE258A3DFE250A3EFE258A3D0000803FF6
:102CE0001BA2F4BFDB3B6A3F32A5773A32A5F73A25
:102CF00032A5773A0000000000000000000000004C
:040000050800018965
:00000001FF
